:020000040800F2
:1000000010080020D90000084D2E00087B2A0008A7
:1000100000000000000000000000000000000000E0
:100020000000000000000000000000009B2F0008FE
:100030000000000000000000992F00085130000867
:10004000EB000008EB000008EB000008EB000008E4
:10005000EB000008EB000008EB000008EB000008D4
:10006000000000005907000869070008EB000008BD
:10007000EB000008C9300008EB000008EB000008A6
:10008000EB000008EB000008EB000008EB000008A4
:1000900000000000EB000008EB000008EB00000887
:1000A000EB000008EB000008EB000008653B0008CF
:1000B000EB000008EB00000800000000000000005A
:1000C0000448854600F0FAF900480047493C00081A
:1000D000C046C04610080020044880470448004736
:1000E000FEE7FEE7FEE7FEE7FEE7FEE7C7300008B3
:1000F000C100000830B50B46014600202022012433
:1001000009E00D46D5409D4205D31D469540491B4B
:100110002546954040191546521E002DF1DC30BD94
:1001200070B500242546002801DA01244042002948
:1001300001DA01254942FFF7DDFFAC4200D0404221
:10014000002C00D0494270BDF0B51FB40646002017
:1001500082B005464024019100901BE0019922469F
:100160000F46304600F058F9049A059B801A9941D1
:1001700010D310461946224600F03EF9361A8F4138
:100180000197224601200021009F00F035F9381820
:100190004D4100902046641E0028DFDC019B009842
:1001A0002946324607B0F0BDD2B201E00270401CD1
:1001B000491EFBD270470022F6E710B513460A46E7
:1001C00004461946FFF7F0FF204610BDF8B5024679
:1001D0004A40D40F42004B0052085B089A4202D2B8
:1001E0000246084611464A0023D0C30D4A00DDB23C
:1001F000120EAD1A202D35DA49020126490AF605FC
:100200008A19002C00D0524220214F1B1146B940C0
:100210002A411018C20D9A4221D0002C17D0012D6E
:1002200008DCDA05801AD20F8019D207DBB200F0A1
:100230000CF9F8BDDA05801A012340001B06C0182E
:1002400080185A428018CA0F1043490007E0490835
:10025000C2071143DA05801A80194008801800F09F
:10026000ECF8F8BD61000122511A001BF7E70122EA
:10027000D2075140AAE70122D2075040A6E7024622
:1002800070B54A40D30FDB0740002DD04A002AD07A
:10029000010E140E000212020919400A520A8418B3
:1002A000E50104465443000A120A2E045043A419DF
:1002B0004219200CC543AA18120C0125AD03521C8B
:1002C000521912047F39240400D0521C104301D467
:1002D0004000491EC2B20C06C0092018401C40084C
:1002E000802A02D003E0002070BD400840000029B1
:1002F00000DA0020184370BD70B502464A40D50FA1
:1003000040004A00ED0740085208002814D0002A97
:1003100012D0C40DD30D41020120C0055202490A7A
:10032000520AE41A091812187D34914201D3641C50
:1003300000E04900002C01DA002070BD002391424A
:1003400001D3891A0343400849000028F7D1002946
:100350000AD0914202D10121C90705E0914201D2A0
:10036000012101E00121C943E005C018401900F056
:1003700064F870BD420005D04200120E52428A421B
:1003800001DB00207047C90508187047C217C10F6C
:10039000504010B54018CA079623002100F055F8C8
:1003A00010BD10B500229623114600F04EF810BD86
:1003B000C20F410040020123400ADB05D207090EAB
:1003C000C0187F2901DA00207047962903DC9623A4
:1003D000591AC84001E096398840002AF4D04042BA
:1003E000704700000122D207002800DB101A002904
:1003F00000DB511A8842704710B5202A04DB014601
:10040000203A9140002010BD914020239C1A0346C1
:10041000E3401943904010BD10B5202A04DB084684
:10042000203AD040002110BD0B46D340D0402024BC
:10043000A21A91400843194610BD002904DA401C55
:10044000490001D140084000704770B40024050CF9
:1004500005D11024000402D1002921D01124050E59
:1004600001D100020834050F01D10001241D850FC0
:1004700001D18000A41C002801DB4000641C00297D
:1004800008D020252E1B0D46F540A14000D00121AB
:100490002943084301061B1B000ADB1D02D500206F
:1004A00070BC7047DB05181880180029F8DA401C6A
:1004B0004900F5D170BC400840007047064C01254A
:1004C000064E05E0E36807CC2B430C3C98471034FC
:1004D000B442F7D3FFF7F8FD204000084040000881
:1004E00070B50446006802F0D1FA002824D02068D4
:1004F00081688907C90F04D18168104A1140103101
:10050000816001F02BF8054612E001F027F8401B4E
:1005100002280DD920688068400709D5A06D1021F8
:100520000843A065E06D01210843E065084670BD01
:10053000206880684007E8D4002070BDE8FFFF7F96
:1005400010B5846AA16D502211420DD1A06D012118
:1005500049020843A065206802F09CFA00281BD0DD
:10056000A07E002807D017E0A16DC90624D520463B
:1005700000F0D6FB10BD2068016809070CD502F019
:1005800085FA0146012000290AD0A16D20221143DD
:10059000A165E16D0143E165204600F0BFFB10BDA0
:1005A00021684A680C239A434A60A16DFF220132F8
:1005B00091430143A165EFE7216D496B884710BD69
:1005C00010B5806A816D402211438165C16D04229E
:1005D0001143C16500F0A4FB10BD10B5806A00F0A6
:1005E0009EFB10BDF8B50446006881688907CD0FF1
:1005F00002F044FA00282AD0002D28D12068816812
:100600000522114010250126012914D18168114AC3
:100610001140891C816021680320086000F09EFF62
:10062000074610E000F09AFFC01B02280BD9206893
:100630008068C00707D0A06D2843A065E06D3043F7
:10064000E0650120F8BD20688068C007EAD100207D
:10065000F8BD0000E8FFFF7FF8B5044600200090D9
:10066000206802F00BFA002845D120688168234AEF
:1006700010261140002930D18168D5432940491CFA
:1006800081601F48006807218905084000020AD5DB
:100690001D481C490068FFF72DFD401C00E0401E6E
:1006A00000900028FBD1607E012824D000F056FF86
:1006B00007461BE002F0E2F9002804D120688168B7
:1006C0002940491C816000F049FFC01B02280DD958
:1006D00020680068C043C00708D0A06D3043A06503
:1006E000E06D01210843E0650846F8BD2068016817
:1006F000C943C907DED10020F8BD00001700008003
:1007000008270140400D03002400002030B50E48AA
:1007100087B00EC801AC0EC407C80C4C0C4D009439
:100720000692059104902B4601AA0021094802F087
:1007300019FC08482B4604AA00214830009402F016
:1007400011FC07B030BD00000840000800F07F45F4
:1007500000803B462003002010B5024800F04AFD0F
:1007600010BD00007402002010B5024800F042FDE8
:1007700010BD0000A000002010B50446006C09491F
:100780008008800040186064207814210838FFF742
:10079000B1FC04498031A164C106C90E0120884022
:1007A000E06410BD000802400179084B8906890EFB
:1007B0008A00D2180265054A4432491E42658A07FA
:1007C000920F01219140816570470000FC080240B2
:1007D000F0B5846CC56C6560046D002C02D0446D6E
:1007E000856D65600B4C6568066C1C273E400127D3
:1007F000B7403D436560046863608368102B0368FD
:1008000003D099600068C260F0BD9A600068C16062
:10081000F0BD00000000024010B524220549064842
:1008200001F08CFE054800680168042291430160D4
:1008300010BD0000B0030020E00100207402002081
:10084000FEB550490878C8287ED1887816287BD113
:100850000A79CB781002184340050C46400D243429
:10086000208008791F27C20848797F0143011A4375
:100870005205520D62808A79800992001043CA792C
:10088000930218434005400DA08050080A7AD30116
:1008900018434005400DE08013094A7A15012B43A7
:1008A0005B055B0D23818B7AD2095B00C97A1A4301
:1008B00049020A435105490DFF226181913251429B
:1008C0000192009171223B461201AE2103F09FF983
:1008D000A0840F21052001912B4D0090A0883B465C
:1008E0002A46AE2103F093F96084642148420191C5
:1008F000009020883B462A46AE2103F088F92084E8
:10090000C1134840401A1E210026019180B23223B3
:1009100064220096314603F07AF925462035A87204
:100920005021484201910090712260883B4612019B
:10093000AE2103F06CF9E084001D092800D2E684A2
:100940002189124A104800E015E06F38914203D324
:10095000814201D9012100E00021E97261898142CF
:1009600001D9022006E00A480818C72801D2012050
:1009700000E00020287324210248FFF71CFCFFF749
:100980004BFFFEBDB0030020130700001A04000057
:100990007BFCFFFF72B6FEE7F0B50446002089B08D
:1009A0002546064640350290287D01280ED00127B5
:1009B0002F752046FFF716FE0590206802F062F8BA
:1009C0000028A06D05D01021084388E0022009B05E
:1009D000F0BDFF210131884302210843A065206852
:1009E000C168414A11400491C168D2431140C160BD
:1009F00000212068826817239A43DB071A4382602C
:100A00003A4A20680DE0029B5B1C0293934208D394
:100A1000A06D0221884310210843A065002028759D
:100A20004DE08368DB0FEED18030406B491C4006FF
:100A3000400E86190829DCD33046FFF75BFB0146E0
:100A4000206882682A4B1A40521C82602068026922
:100A5000920F920713D1274A12680F26B60432402C
:100A60000726B604B2420AD3920C3E46D21E9640E6
:100A70007208019600E0521E0192002AFBD18030DC
:100A8000426BD209D2010A4342632068816819404F
:100A9000891C816000F062FD064612E000F05EFDF8
:100AA000801B02280DD9206801F0ECFF002808D037
:100AB000A06D10210843A065E06D3843E06501207A
:100AC00085E7206801F0DEFF0028E7D12068C168D3
:100AD000049A1143C160A06D80088000401CA0658D
:100AE00000202875059872E70380000000F20200DC
:100AF000E8FFFF7F08270140F8B5002706460446B7
:100B000040360097307D0D4601280FD0012030750A
:100B1000206801F0BBFF00280AD0A06D2021084307
:100B2000A0650127002030753846F8BD0220F8BDC9
:100B3000686802287ED001222169D207914202D042
:100B4000121D914206D120682968826A4903490B27
:100B50000A436EE0C206D20E0F20216E9040814300
:100B60002868430302D0C3074BD102E04000C00E07
:100B700048E0830701D5012044E0430701D5022066
:100B800040E0030701D503203CE0C30601D5042063
:100B900038E0830601D5052034E0430601D5062060
:100BA00030E0030601D507202CE0C30501D508205D
:100BB00028E0830501D5092024E0430501D50A205A
:100BC00020E0030501D50B201CE0C30401D50C2057
:100BD00018E0830401D50D2014E0430401D50E2054
:100BE00010E0030401D50F200CE0C30301D5102051
:100BF00008E0830301D5112004E0400301D5122051
:100C000000E000209040014321666968E26988089D
:100C1000401C904210D820682B68826A9C46C90606
:100C2000C90E0F238B409A4363469B001B0F8B40DA
:100C30001A4300E03BE082622168AB6828684A6999
:100C40000002824318404001400902434A6128687B
:100C5000002800DB66E72B4A116807239B05194033
:100C6000294B984214D10B0212D4C0020143104602
:100C700001F018FF264825490068FFF73BFA0C21D0
:100C8000401C484300E0401E00900028FBD149E78B
:100C9000204B984203D1CB0101D4800205E01E4BCA
:100CA0009842D7D14802D5D45802014325E001210A
:100CB0002069C907884202D0091D884206D12068F0
:100CC0002968826A4903490B8A438262286800289E
:100CD000C0DA0C4A116807239B0519400A4B984259
:100CE00001D1C00208E00B4B984201D1800203E021
:100CF000094B9842AED140028143104601F0D2FE2A
:100D000010E7000008270140001000B0400D03006C
:100D100024000020004000B8002000B47047704755
:100D200070470000FEB50027044601973E46029733
:100D30000097002805D02546A06D2035002802D058
:100D400007E00120FEBD204600F0FCF8E6655420D7
:100D5000065520688168C900C90F12D18168724A9E
:100D60001140012212071143816071486F490068E8
:100D7000FFF7C0F94000801C00E0401E00900028F2
:100D8000FBD120688168C900C90F08D1A16D10226C
:100D90001143A165E16D01221143E165174601F0A0
:100DA00075FEA16DC90601D4002804D0A06D1021E4
:100DB0000843A065B4E0A06DFF2101318843022102
:100DC0000843A065206801F059FE00286DD1217EFE
:100DD000A06889030843617ECA03A17E4B031A43BE
:100DE0001043226B002A01D0012212031043E26853
:100DF00010432269002A02DA5200520801E001225F
:100E0000520510432A7B52001043019A10432A785E
:100E1000012A09D1002922D0A16D20221143A16508
:100E2000E16D01221143E165616A002906D0FF23CB
:100E3000C1331940A26A0143104608432168CA68B9
:100E40003C4B1A400243CA606168029A890F8907C5
:100E5000E06C0A4310432A7F012A04D00CE00121F0
:100E600009040843E0E7636C226C491C1A43A36C35
:100E70000B4311461943084321680A692E4B1A4057
:100E800002430A6103216068890788420DD059072F
:100E900088420AD04900884207D0284A91680F2327
:100EA0009B0499431840014391600021626B2068C4
:100EB00001F0FFFD2249A26B206801F0FAFD0F202E
:100EC0002169C04300291CD00122520591420AD158
:100ED00021688A6A227F9200121FD206D20E9040A9
:100EE000226E1043886220684069616B4007400FA2
:100EF00088420BD1E665A06D80088000401CA0658B
:100F00000FE021688A6A02438A62ECE7A06D022141
:100F1000884310210843A065E06D01210843E06586
:100F200001273846FEBD0000E8FFFF7F400D0300AB
:100F3000240000200102DEFF02FCFF1F0027014009
:100F400004FFFF0770B586B0064614216846FFF718
:100F500032F91D493068884234D11C4802680121A9
:100F600009050A43026000680840059017484038A8
:100F7000416B012211434163406B002510400590F5
:100F8000D1200090032001900520694602950007BA
:100F900000F036FA0F4C0E482060A5600520E56091
:100FA00060608020206140006061E5618000256212
:100FB000A061204600F07AF9002801D0FFF7EAFC92
:100FC0003465A66206B070BD0024014040100240A6
:100FD0001C000240A0000020F7B50446006801F0A4
:100FE00055FD002845D125464035287D012840D0B3
:100FF00001272F752068C1681F4EC9070CD101F069
:101000003DFD002804D0206881683140891C816042
:101010002068C1683943C1602046FFF71DFB0028E6
:1010200026D1A06D15490840FF2101310843A06574
:101030000020E065226D1249D162226D11491163D1
:10104000226D1149516322681C21116028752068A6
:1010500041681022114341602168206D4031029B9C
:10106000019A00F075F921688A683240121D8A6081
:10107000FEBD0220FEBD0000E8FFFF7FFEF1FFFF86
:1010800041050008DB050008C1050008F8B5064663
:1010900004464036307D012807D0012737752046A9
:1010A000FFF71EFA050002D028E00220F8BD206DEF
:1010B0002521095C022907D100F024F8050003D09E
:1010C000A06D40210843A06520684168102291432B
:1010D0004160002D204602D0FFF784FA09E0FFF7B7
:1010E00081FA050005D1A06DFF2101318843384305
:1010F000A0652068C16849084900C16000203075BA
:101100002846F8BDF0B5002808D0014620314A79BC
:10111000022A05D00422C263002008710120F0BD1C
:10112000026813680E24A3431360426C1468FF2303
:1011300001339C43146002681468640864001460FE
:101140000C4A5568066C1C24264001242746B740EB
:101150003D435560826CC56C5560026D002A05D018
:1011600015689D431560826D406D42604C71002092
:101170000871F0BD00000240F8B50024024620329C
:101180005179022903D00421C16301242DE00168B3
:101190000B680E25AB430B6001680B685B085B00B6
:1011A0000B60416C0B68FF250135AB430B601049A8
:1011B0004D68066C1C231E4001231F46B7403D436B
:1011C0004D60816CC56C4D60016D002906D00E68C4
:1011D0001D02AE430E60416D856D4D60537100215F
:1011E0001171816B002900D088472046F8BD0000AE
:1011F00000000240F0B42C490C6802681368056CCA
:101200001C273D400426AE40264211D05E070FD574
:1012100013689B0603D4146804239C4314604B6832
:10122000046C04223C40A24013434B60016B1CE061
:101230000227AF40064627402036002F19D09F07CF
:1012400017D513689B0605D413680A24A3431360BB
:10125000012272714B68046C1C2214400222A240CD
:1012600013434B6000213171C16A00291AD0F0BCD0
:1012700008470827AF40274214D01B0712D5136830
:101280000E24A34313604B68046C1C2214400122FB
:101290001546A5402B434B60C2637271002131712A
:1012A000416BE2E7F0BC70470000024070B50400FB
:1012B0003FD02548256814212818FEF71BFF800021
:1012C0002064022026462036707128681F49084095
:1012D0002860E168A06862690843216911430843F6
:1012E000A1690843E1690843216A084321680A6843
:1012F000104308602046FFF73FFA0121A0688903E8
:101300000025884200D165602079616C8006800EDE
:101310000860A06CE16C41606068401E03280AD838
:101320002046FFF741FA206D0560606DA16D4160B8
:1013300004E0012070BD25656565A565E5630120B4
:1013400070713571002070BDF8FFFDBF0F80FFFF89
:10135000F8B504468C4620300179002501290BD0D0
:101360000126067141790027012907D08021E16318
:10137000077101252846F8BD0220F8BD0221417100
:10138000E76320680168490849000160614620461A
:10139000FFF71EFA206B00282068016801D00E229A
:1013A00005E0042291430160206801680A2211438C
:1013B0000160606C0168CA03074902D502680A43EC
:1013C0000260206D002802D002680A430260206893
:1013D000016831430160CDE70001000070B50446AB
:1013E00000F0BCF80546601C02D0044800782418C0
:1013F00000F0B4F8401BA042FAD370BD18000020E2
:10140000F0B5002303249AE02A4601259D402A4096
:101410007ED00E79B607B60F012E01D0022E16D15E
:1014200086682746B4465E00B646B7406646BE4369
:10143000B446CF687646B74066463743876046680D
:10144000AE430D79ED06ED0F9D40354345600D79B6
:10145000ED43AD0708D0C5685F002646BE40B543E2
:101460008E68BE402E43C6600D79AD07AD0F022DCC
:101470000ED1DD08AD002D18AC462D6A5E07F60EC4
:101480000F27B740BD430F69B7402F4365462F6212
:1014900005685F002646BE40B5430E79B607B60F15
:1014A000BE402E4306604D68AD03AD0F46D09E088A
:1014B000264DB6007519AC462D6E9E07F60E0F2709
:1014C000B740BD4305273F07B84201D100270FE0D1
:1014D0001F4FB84201D101270AE01E4FB84201D187
:1014E000022705E01C4FB84201D1032700E0052781
:1014F000B7402F43154D664637662D684E689543B5
:10150000F60200D51543114F3D607D68954300E01C
:1015100014E04E68B60200D515437D600B4D803552
:101520006E684F689643BF0300D516436E602E6801
:101530004F689643FF0300D516432E605B1C0A6874
:101540001546DA4000D05FE7F0BD00000018024009
:101550000004005000080050000C00500148806852
:10156000704700001800002002488168027889183E
:10157000816070471800002010B5084800240168F9
:10158000821511430160032000F00AF8002801D001
:10159000012401E000F028F8204610BD00200240A0
:1015A00070B50F4E002431780546002915D07D20F6
:1015B000C000FEF79FFD01460A480068FEF79AFD4D
:1015C00000F030FC002808D1042D06D20022294664
:1015D000401E00F02BF8756000E00124204670BD2D
:1015E000180000202400002008B5094801680122E5
:1015F0001143016000681040009005484038C26BFC
:1016000001040A43C263C06B0840009008BD00009B
:1016100040100240002805DBC106C90E01208840A9
:10162000014908607047000000E100E010B502F0D9
:10163000A1FA10BD10B50F4C21680322520291434C
:1016400001432160C11FFF39FA390ED10A48062132
:10165000006848430949FEF74DFD401C02E00028A0
:1016600005D0401E61694905F9D4002010BD032052
:1016700010BD0000007000402400002040420F0018
:10168000F8B5044600680026664D800358D56548C5
:1016900000274038C06BC00009D462484038C26B94
:1016A00001040A43C263C06B0840012700905E48F2
:1016B0000168821511430160FFF750FF009005E0BB
:1016C000FFF74CFF0099401A022825D856480068B9
:1016D000C005F5D5E8690321090208400FD0616A09
:1016E00081420CD0E86903210902EA69884301219B
:1016F00009040A43EA61EA698A43EA61E861C007CA
:101700000FD0FFF72BFF009008E0FFF727FF0099AD
:10171000411A4648814201D9032609E0E869800759
:10172000F3D5E869032109028843616A0843E86147
:10173000002F05D03B484038C26B01048A43C26386
:101740002078C00705D06869616880088000084378
:1017500068612078C00606D568690321890288433C
:10176000A168084368612088800506D5686903215F
:10177000890488436169084368612088400506D56B
:101780006869032109058843A169084368612078D5
:10179000800606D56869032109038843E168084388
:1017A00068612088400411D56869E169800080087B
:1017B000084368610121E0698907884206D1194818
:1017C0004038C168012212041143C16020688002C0
:1017D00010D5686901218905226A88431043686130
:1017E000206A884206D10F484038C168012212069B
:1017F0001143C1602088000512D56869032189035F
:10180000884321690843686101212069890388426E
:1018100006D104484038C168012212041143C16056
:101820003046F8BD401002400070004088130000B0
:10183000F8B50F46060043D04D4D28684007400FCD
:10184000B84213D22868C008C00038432860FFF7A8
:1018500085FE044605E0FFF781FE011B45488142F5
:1018600061D828684007400FB842F4D13068424C34
:1018700081070DD5400704D5A06807210903084357
:10188000A060A0680F2109028843B1680843A060E6
:101890003078C00732D0706801280AD002280BD0F7
:1018A00000280FD03449403103280ED0C969890778
:1018B00004E02168890301E021688901002906DB31
:1018C0000120F8BD21684905F8E7096AEFE7A1683A
:1018D000C908C9000143A160FFF740FE009006E07F
:1018E000FFF73CFE0099411A224881421BD8A068AC
:1018F000382108407168C9008842F1D12868400742
:10190000400FB84217D91A480168C908C9003943BD
:101910000160FFF723FE054607E0FFF71FFE411BAE
:101920001448814201D90320F8BD114800684007DE
:10193000400FB842F1D13078400706D5A0680721A2
:1019400009038843F1680843A06000F031F8A168FA
:101950003C2289091140094A515CC906C90EC84098
:101960000749086007480068FFF71AFEF8BD000045
:10197000002002408813000000100240A83F000829
:10198000240000201C0000200648074900688968E0
:10199000064A4904490F8900515CC906C90EC8406E
:1019A000704700002400002000100240E83F0008BB
:1019B00010B5204CA068204A8006400F16D0A068C1
:1019C0008006410F501001290FD0A1688906490FE8
:1019D000022912D0A0688006400F042823D0A068F6
:1019E0008006400F032821D0002010BD206801216F
:1019F0008004400F8140104612E0E1688B07E168E7
:101A00009B0F4906490F491C032B00D01046FEF7D7
:101A100071FBE1684904490E4843E168490F491CDC
:101A2000FEF768FB10BD0120C00310BD7D20000241
:101A300010BD0000001002400024F400F8B50400BE
:101A40007ED020783827C007ED4D002846D0A86802
:101A5000E96838408907890F102802D008280BD080
:101A600001E0032908D001206268000482420AD103
:101A700029680143296015E0286880032ED5606835
:101A80000028DDD02AE0052301211B0489049A42A5
:101A90002A6802D10A432A60EAE782432A6028685A
:101AA00088432860606800280CD0FFF757FD064681
:101AB00004E0FFF753FD801B642873D82868800377
:101AC000F7D50BE0FFF74AFD064604E0FFF746FDB9
:101AD000801B6428F1D828688003F7D42078800719
:101AE00069D5A868E96838408A070721920FC902BA
:101AF000102802D0002813D001E0022A10D0E0689C
:101B0000002846D02868884321690843286028684F
:101B1000FF21013108432860FFF720FD06462CE035
:101B20002A68520502D5E268002A89D06A687F23B4
:101B30001B029A4363691B021A436A60002800E093
:101B40008DE00ED128688843216908432860286801
:101B500001218004400F8140AA48FEF7CBFAAA4930
:101B60000860AA480068FFF71BFD002877D122E033
:101B7000FFF7F4FC801B02289FD828684005F7D5A2
:101B800068687F2109028843616909020843686027
:101B900011E02968FF20013081432960FFF7DEFC56
:101BA000064605E098E0FFF7D9FC801B022884D8A0
:101BB00028684005F7D42078954E00072ED5A868F0
:101BC0008006400F03280AD0A0690028306A16D08A
:101BD000012108433062FFF7C1FC07460BE0306A81
:101BE00080071BD5A06900289FD017E0FFF7B6FC3F
:101BF000C01B022870D8306A8007F7D50EE0400875
:101C000040003062FFF7AAFC074604E0FFF7A6FC9D
:101C1000C01B022860D8306A8007F7D420784007BC
:101C20006CD5A86800278006400F042818D0E86B00
:101C3000C00008D4E96B012000070143E963E96BA8
:101C400001400127009173480168C90519D4016852
:101C5000821511430160FFF781FC00900DE083E0E5
:101C6000F06980074AD5A06800287DD046E0FFF7DC
:101C700075FC0099401A02282ED866480068C005F5
:101C8000F5D5A168012910D004200529F16911D0EA
:101C900049084900F161F1698143F161A0680028B8
:101CA00016D0FFF75BFC00900EE0F06901210843BD
:101CB000F061F3E70143F161F7E7FFF74FFC0099AB
:101CC000411A5548814267D8F0698007F5D50EE082
:101CD000FFF744FC009007E05EE0FFF73FFC00994F
:101CE000411A4D48814257D8F0698007F5D4002F3A
:101CF00004D0E86B012109078843E863E069002804
:101D00007BD0A9688906490F02294FD001263606E3
:101D10000228286805D0B0432860FFF71FFC04465E
:101D20003CE0B0432860FFF719FC074604E0FFF7EA
:101D300015FCC01B02282FD828688001F7D4616ADF
:101D4000206AA26A0843E16A120211430843216B28
:101D50000843616B0843E968304A11400843E86072
:101D600028683043286000E045E0E8680121090761
:101D70000843E860FFF7F2FB044604E0FFF7EEFBE0
:101D8000001B022808D828688001F7D535E0FFF746
:101D9000E5FB001B022801D90320F8BD286880015B
:101DA000F5D4E8681E490840E86026E00128F4D030
:101DB000E868226A8107890F91421CD17021626A0A
:101DC0000140914217D17F21A26A0902014012020B
:101DD000914210D11F214904E26A014091420AD187
:101DE00007214906226B0140914204D1400F616BEB
:101DF0004007884201D00120F8BD0020F8BD000056
:101E0000001002400024F400240000201C000020E8
:101E10004010024000700040881300008C80C11107
:101E2000FCFFFEEE094910B5401E884201D9012091
:101E300010BD074C60610321081F01F09BFE0020CC
:101E4000A06107202061002010BD0000FFFFFF00FF
:101E500000E000E07047704770470000F0B50346AF
:101E600020331A7F012A28D001221A7702225A77BA
:101E700004686268A568124FBC4205D116460F225D
:101E8000120596434A6832437026B2430E681643E1
:101E900066600068B84206D001229207904202D0E4
:101EA000084A904204D18022896895432943816081
:101EB0000120587700201877F0BD0220F0BD000007
:101EC000002C01400004004070B5040005D02546F8
:101ED0002035687F002802D006E0012070BD002078
:101EE0002877204600F016F802206877211D206828
:101EF00001F0F2F8012240342272AA77EA772270C8
:101F00006270A270E27022716271A271E2716A77EE
:101F1000002070BD10B58CB0044628216846FEF73D
:101F20004AF91149206888421BD1012040050090E0
:101F3000002008906846FFF7A3FB002801D0FEF7B9
:101F400029FD0A480268C1140A43026000680022A1
:101F500008400A9011460D20FFF768FB0D20FFF79F
:101F600059FB0CB010BD0000002C01404010024095
:101F7000014620314A7F012A01D001207047022208
:101F80004A7700680B490122884205D091078842B0
:101F900002D00949884207D18168084B19400629B7
:101FA00005D0DB1F994202D0016811430160002077
:101FB00070470000002C01400004004007000100B1
:101FC000F8B5054604462035287F0026012817D09D
:101FD00001272F7702206877226890682F4B1840DE
:101FE000FF231B02984390600868502838D00EDC0D
:101FF00020284FD006DC00284CD010281ED149E004
:102000000220F8BD302845D0402817D13AE060289A
:102010002ED0702818D001221203801A0FD09042BF
:102020000CD1CB684A688968206801F0ACF8206858
:102030008168012292031143816000E001266F77DD
:10204000002028773046F8BDCB684A688968206848
:1020500001F099F821688868772210438860EEE7DC
:10206000CA684968206801F0F1F95021206806E04B
:10207000CA684968206801F0FAF96021206801F017
:102080008DF8DCE7CA684968206801F0DFF9402173
:102090002068F4E7226801461046F0E788FFCEFF8B
:1020A00070470000F8B504460068C6680569002757
:1020B000A907002913DAB10711D5F91E0161012022
:1020C0002077206880698007204602D0FFF7E8FF6C
:1020D00004E000F0D3F8204600F0AAF9277768075B
:1020E00016D5700714D504202168C043086102206A
:1020F0002077206880698005800F204602D0FFF796
:10210000CFFF04E000F0BAF8204600F091F92777FD
:10211000280715D5300713D508202168C04308616A
:10212000042020772068C0698007204602D0FFF78E
:10213000B7FF04E000F0A2F8204600F079F9277715
:10214000E80616D5F00614D510202168C0430861B2
:10215000082020772068C0698005800F204602D0C3
:10216000FFF79EFF04E000F089F8204600F060F9D8
:102170002777E80708D0F00706D001202168C04380
:102180000861204600F0BAF9280601D4A80407D552
:10219000300605D52168134808612046FFF75BFE2D
:1021A000E80507D5300605D521680F4808612046A7
:1021B000FFF750FE680608D5700606D54020216856
:1021C000C0430861204600F09AF9A80608D5B00679
:1021D00006D520202168C04308612046FFF73CFE59
:1021E000F8BD00007FDFFFFFFFFEFFFF70B586B088
:1021F000044614216846FDF7DEFF012322689B0791
:1022000000251B49012002241A4E9A421CD14A6B18
:1022100002434A63486BC007C00F0590486B2043D8
:102220004863486B6A4620400590D81331C20520A8
:102230006946000703950494FFF7E2F808206A4610
:1022400031C2039504940DE00B4B9A420ED14A6BB8
:1022500022434A63496B6A4621400591302132C2CC
:102260000395049069463046FFF7CAF806B070BD82
:102270000010024000040050000400407047F8B510
:1022800004460020264620360090307F0D46012867
:102290000CD00120082730770C2A48D008DC002A0F
:1022A00010D0042A1ED0082A06D130E00220F8BD42
:1022B000102A52D0142A60D00120009000203077DC
:1022C0000098F8BD206800F073FF206881693943E9
:1022D000816120688169042291438161206881695C
:1022E0002A6911E0206800F0A1FF206881690122BD
:1022F000D20211438161206881695210914381614A
:10230000206881692A69120211438161D6E7206839
:1023100000F0CAFF2068C1693943C1612068C16902
:1023200004229143C1612068C1692A6912E02068D2
:1023300000F0F8FF2068C1690122D2021143C16197
:102340002068C269012189028A43C2612068C1698B
:102350002A6912021143C161B0E7206801F016F842
:102360002068416D394341652068426D04218A43EC
:1023700042652068416D2A6912E0206801F034F856
:102380002068416D0122D202114341652068426DEF
:10239000012189028A4342652068416D2A6912023F
:1023A000114341658AE770B5040005D02546203504
:1023B000687F002802D006E0012070BD0020287749
:1023C000204600F017F802206877211D206800F0F1
:1023D00083FE012240342272AA77EA77227062706B
:1023E000A270E27022716271A271E2716A770020BC
:1023F00070BD000008B50122016892070A489142A9
:1024000006D1C16B01221143C163C06B104008E0CB
:10241000064A914206D1C26B02210A43C263C06BD5
:102420000840009008BD0000001002400004004079
:102430007047000010B504460223203000290ED05A
:10244000042911D020464030082912D00C2915D07B
:10245000102918D0C278012A1AD0012010BD827F1D
:10246000012AFAD1837714E0C27F012AF5D1C3771C
:102470000FE00278012AF0D103700AE04278012AC5
:10248000EBD1437005E08278012AE6D1837000E049
:10249000C3700122206800F069FE13492068884259
:1024A00005D0124A904202D0114A904204D1426CA7
:1024B0000123DB031A43426420680122884205D0CD
:1024C0009107884202D00B49884207D181680A4BA4
:1024D0001940062905D0DB1F994202D0016811433B
:1024E0000160002010BD0000002C014000440140AC
:1024F0000048014000040040070001007047704799
:1025000010B5014680310A79012A15D001220A71DD
:1025100024228A60026813681468640864001460E6
:102520000122520793430022426600680360202084
:1025300088600A71104610BD022010BD10B5044617
:102540008030C068202801D0022010BD00290BD0A7
:10255000002A09D00123A0681B03984206D12069F4
:10256000002803D1C80701D0012010BD0120E0667A
:1025700000202067204601F057FA010003D1E06EE9
:10258000012802D00121084610BD206810220262F5
:10259000EFF31080012383F3108823681C68144331
:1025A0001C6080F31088EEE7034A10B5904202D118
:1025B0000846FEF745F910BDE0010020704770B5F0
:1025C000044605468034207901281AD00120207164
:1025D0002420A06028680668026852085200026041
:1025E0002868826807235B069A430A43826028466C
:1025F00000F050FF286806602020A06000202071B5
:1026000070BD022070BD70B5044605468034207947
:10261000012819D0012020712420A06028680668B4
:10262000026852085200026028688268D200D2080C
:102630000A438260284600F02DFF286806602020AB
:10264000A0600020207170BD022070BD70477047EF
:1026500070470000F8B503680446D96918689A689D
:10266000B44D0E462E4025468035002E75D0B24E14
:10267000B24F1640074037436ED0CF0706D0C7058C
:1026800004D501271F622B693B432B618B0708D5BB
:10269000D30706D0276802233B622B6904273B43FC
:1026A0002B614B0708D5D30706D0276804233B626C
:1026B0002B6902273B432B610B0709D520230340DD
:1026C000334305D02668082333622E691E432E61EA
:1026D0000B0509D5430107D501232668DB023362C8
:1026E0002B69202633432B612B69002B42D08906AE
:1026F0000AD520210840C9050A40104304D0616F63
:10270000002901D020468847286921688968490640
:1027100002D42821084232D0204601F02FF8216847
:102720008868400627D5EFF31080012282F31088D5
:102730008B68402293438B6080F3108828680028C0
:1027400019D07F4981632868FEF716FD002811D053
:102750002868816B0DE000E017E08E0615D5012793
:1027600020263F07064017403E430ED0616FB5E07C
:1027700020468847F8BD2046FFF76AFFF8BD20468F
:10278000FFF766FF00202861F8BDE66E012E7DD1BF
:10279000CE067BD5C60679D510221A6223689868C2
:1027A000264640064036002849DA2968086840680D
:1027B0000004000CE8D0B78B8742E5D9F0830868A5
:1027C0000068800634D4EFF31080012181F3108873
:1027D00019681701B943196080F31088EFF310806E
:1027E000012181F3108821688B685B085B008B6096
:1027F00080F31088EFF31080012181F310882168A5
:102800008B684027BB438B6080F310882020E860F2
:102810000020E066EFF31080012181F31088216829
:102820000B6893430B6080F310882868FEF76AFCFE
:1028300002202067B08BF18B401A81B235E0B08B5B
:10284000F18B401A81B2F08B00289DD000299BD0DB
:10285000EFF31080012686F310881E68FF272137CA
:10286000BE431E6080F31088EFF31080012383F3D2
:10287000108823689E68304FFF433E409E6080F37F
:1028800010882020E8600020E06600E011E060672A
:10289000EFF31080012383F3108823681D689543AC
:1028A0001D6080F31088022020672046FFF77CFE21
:1028B000F8BDCE0208D5560206D5012000051862E3
:1028C0002046FFF7C4FEF8BD0E060BD50127802673
:1028D000FF0506403A40164304D0A16F002900D0FE
:1028E00046E7F8BD4A0614D5420612D52046EFF356
:1028F0001081012282F310881A684024A2431A60D2
:1029000081F310882021A9600021816700F0B4F8CC
:10291000F8BD0A0205D5420003D52046FFF796FE12
:10292000F8BDC901FCD50028FADA2046FFF746FEBB
:10293000F8BD00000F080000010000102001000495
:102940005D36000870B5040005D025468035A868BE
:10295000002802D006E0012070BD0020287120462A
:1029600000F026F82420A860206801684908490082
:102970000160A06A002802D0204600F0ADFD20468C
:1029800000F04CFF0128E7D0206841680922D202FC
:1029900091434160206881682A22914381602068C8
:1029A0000168012211430160204600F0FBFD70BD6B
:1029B00070B590B0064614210AA8FDF7FCFB28214B
:1029C0006846FDF7F8FB26493068884245D101206A
:1029D0000025009001956846FEF752FE002801D0C0
:1029E000FDF7D8FF1F480268012189030A430260EE
:1029F000006808400F901B484038426B02210A4390
:102A00004263406B0AAA08400F90C02023C20D9574
:102A10000AA915480E95FEF7F3FC154C13482060E3
:102A2000A5603220E560606065618020A56120615D
:102A300020202562E0612046FEF738FC002801D006
:102A4000FDF7A8FF80208451002211461B20A662BA
:102A5000FEF7ECFD1B20FEF7DDFD10B070BD0000A1
:102A600000380140401002400004005008000240BD
:102A700074020020704770477047FEE78068C00707
:102A8000C00F70478068C007C00F7047806840075C
:102A9000C00F7047C0680005800F01D0002070474C
:102AA00001207047026807239B059A430A4302608E
:102AB000704710B543690424214007248C40A34388
:102AC0008A401343436110BD3EB500242A48009458
:102AD000019428490294016084600905C460416042
:102AE00004254912456101610476447684760146E5
:102AF0002031C5610C70446284620C7304634463CA
:102B000084630C77C464FEF70DF9002801D0FDF74B
:102B100041FF012000900194694602941648FDF798
:102B2000EBFF002801D0FDF735FF144800906946FF
:102B300001951148FDF7E0FF002801D0FDF72AFFBD
:102B40000F4800900820019069460B48FDF7D4FF1C
:102B5000002801D0FDF71EFF0A4800900C200190CC
:102B600069460548FDF7C8FF002801D0FDF712FFB0
:102B70003EBD0000002401403C0000201000001079
:102B8000400000188000001C08B50C48816B012231
:102B900011438163806B1040002200901146092090
:102BA000FEF744FD0920FEF735FD002211460A20FC
:102BB000FEF73CFD0A20FEF72DFD08BD0010024087
:102BC00008B50848416B012211434163416B114034
:102BD0000091426B02210A434263406B084000901F
:102BE00008BD00000010024010B588B00024059414
:102BF0000694184803940494009401941449029490
:102C000001603F2184604160046144611249846134
:102C1000C160FFF759F9002801D0FDF7BBFE012084
:102C20000003039003A90B48FFF7CAF9002801D05D
:102C3000FDF7B0FE00940194694606480294FFF740
:102C40000DF9002801D0FDF7A5FE08B010BD000069
:102C5000002C0140FC000020FFF9000010B58AB0F4
:102C60000024079408941C2168460994FDF7A3FAF0
:102C700001211B48890701603F2184604160046194
:102C800018498461C160FFF78EFB002801D0FDF771
:102C900081FE079407A912480994FFF7DFF800287E
:102CA00001D0FDF777FE602000900194029400228D
:102CB000694604940A48FFF7E2FA002801D0FDF7BC
:102CC00069FE042269460648FFF7D9FA002801D0B8
:102CD000FDF760FE0248FFF789FA0AB010BD000058
:102CE000480100201F4E000010B58AB00024079450
:102CF00008941C2168460994FDF75DFA1B481A499F
:102D000001603F2184604160046119498461C160B0
:102D1000FFF749FB002801D0FDF73CFE079407A907
:102D200012480994FFF79AF8002801D0FDF732FE07
:102D300060200090019402940022694604940B489C
:102D4000FFF79DFA002801D0FDF724FE0422694612
:102D50000648FFF794FA002801D0FDF71BFE034850
:102D6000FFF744FA0AB010BD0004004094010020AF
:102D70001F4E000010B51848164901601749416000
:102D800000218160C16001618161C16101620C2229
:102D9000416242618162FFF7D5FD002801D0FDF755
:102DA000F9FD00210C48FFF72EFC002801D0FDF7AB
:102DB000F1FD00210848FFF702FC002801D0FDF7D3
:102DC000E9FD0548FFF79CFB002801D0FDF7E2FD77
:102DD00010BD000000380140E0010020A06806009E
:102DE00070B5184C0620205EFDF7D0FA0546A08885
:102DF000FDF7D7FA014620462A46503000F027F862
:102E00000121C9074840FDF7D3FA0F4D2860A08182
:102E10002620205EFDF7BAFA0646A08CFDF7C1FA1F
:102E2000014620463246983000F011F8FDF7C0FA0E
:102E300002B26860A28528880023194600B200F01B
:102E4000ADF870BDD002002028000020FEE7FEB5DE
:102E5000040014D0206C60640290E06B2064009049
:102E6000A2611046E161FDF702FA0646E0632078B0
:102E70000125ED07002804D0012838D035E00020D6
:102E8000FEBD31466068FDF7FAF960623146A06820
:102E9000FDF7F5F9A16AFDF799F90746A062606BA5
:102EA000A063206B606330460099FDF7E0F9206372
:102EB000E26801461046FDF7E2F9E06238466169D2
:102EC000FDF790FA606906D36840A16AFDF78AFAB7
:102ED00002D260696840A062A16A606AFDF776F973
:102EE000E16A31E0206968402062206AFEBD304618
:102EF0000099FDF7BCF96168FDF7C1F960620190C6
:102F00003146A068FDF7BBF90746A062606BA0637D
:102F1000206B606301210098FDF72CFA3146FDF724
:102F2000AAF90299FDF752F92063E26801461046BA
:102F3000FDF7A5F90646E06239460198FDF746F926
:102F40003146FDF743F9216AFDF740F92062216916
:102F5000FDF748FA2069C7D36840216AFDF742FAB5
:102F6000C3D2BFE710B5029C002814D0002A12D0AB
:102F70000170116841605168816091680C301AC01D
:102F800000210162C1618161816041610161C160B3
:102F9000C1628162416210BD70477047C113034630
:102FA0004B40591A10B589B2002801DD012000E01C
:102FB0000020404280B20C46044001239B079C63E2
:102FC00081435963D01311464140081A80B2002A48
:102FD00001DD012100E00021494289B20346034A94
:102FE0000B4093638843506310BD00000004004011
:102FF00010B5042211491248FDF7EEFF0F49891E52
:103000008C1C0870002802D000202080A0800D4871
:1030100041790129FCD10A48FEF738F820880321BC
:103020004902401801050848090D8180A188074A16
:10303000511A0905090D818410BD000032000020DD
:103040003C000020C0000020D002002063120000DD
:1030500010B5FEF789FA10BD30B593B03821684637
:10306000FDF7A9F8002501200E950F951095400257
:103070001195FEF7DFFA0224E0010390009440204E
:10308000059008200A9080030B90032007944006C7
:103090000C900894200704950D9009956846FEF75A
:1030A000CDFC002801D072B6FEE707200EA931C181
:1030B00002210EA81195FEF7BBFB002801D072B6C5
:1030C000FEE713B030BD704710B50248FEF7EAFFC7
:1030D00010BD0000FC000020F0B502681E4B01246A
:1030E000A4071E4D984203D0A04201D0A84203D1AC
:1030F0007026B2434E683243194E1A4F98420AD096
:10310000A04208D0A84206D0174CA04203D0B0423B
:1031100001D0B84204D103242402A243CC68224344
:103120008024A2434C69224302608A68C2620A6812
:103130008262984203D0B04201D0B84201D10969FD
:103140000163012141610169C90703D0016949088F
:1031500049000161F0BD0000002C01400004004066
:1031600000440140004801400020004010B5CB065B
:10317000DB0E0121046A99408C430462016A9A4083
:103180001143016210BD30B58468FF252D021B027A
:103190001343AC430B432343836030BD8268034B2E
:1031A0001A400A4307210A43826070478FFFCFFF0E
:1031B000F0B5056A026A52085200026243688269E9
:1031C000164C184E224092080C68920014430222BA
:1031D00095438A682A43124DA84204D0B04202D0D7
:1031E000114FB84206D10827BA43CF6817430422CB
:1031F00097433A46A84204D0B04202D00A4DA842B2
:1032000006D103252D02AB434D691D438B692B432A
:1032100043608461496841630262F0BD8FFFFEFF35
:10322000002C0140004401400048014070B5046A90
:10323000026A10239A43026243688269164D2A404B
:1032400003252D02AA430D682D0215432022944325
:103250008A6812012243114CA04207D18024A24364
:10326000CC68402624012243B24305E00C4CA04226
:1032700002D00C4CA04208D10324A402A3434C6901
:10328000A4001C438B699B0023434360856149680C
:103290008163026270BD0000FF8FFFFE002C0140C1
:1032A000004401400048014070B5046A026AFF23EF
:1032B00001339A4302624368C269164D2A4092085C
:1032C0000D68920015430122520294438A6812024B
:1032D0002243114CA04208D11446CA68C614B44314
:1032E000120222430415A24305E00C4CA04202D076
:1032F0000B4CA04208D103242403A3434C692401AE
:103300001C438B691B0123434360C5614968C1634A
:10331000026270BD8FFFFEFF002C0140004401409F
:103320000048014030B5046A026A01231B039A4336
:1033300002624368C269114D2A4003252D02AA4347
:103340000D682D0215430122520394438A6812032B
:1033500022430B4CA04205D00A4CA04202D00A4C9A
:10336000A04205D10124A403A3434C69A401234333
:103370004360C56149680164026230BDFF8FFFFE92
:10338000002C0140004401400048014070B5036A30
:10339000026A01263604B24302624268456D0E4C51
:1033A00025400C682C437500AB430D892D041D434B
:1033B0000A4B984205D00A4B984202D0094B9842DA
:1033C00003D14B69B2431B021A434260446549680A
:1033D0008165056270BD00008FFFFEFF002C01407B
:1033E000004401400048014070B5046A026A0123AC
:1033F0001B059A4302624268436D104D2B400D68D5
:103400002D021D4301235B059C430B891E050C4BBC
:103410002643984205D00B4B984202D00A4B984263
:1034200006D101241346A4044A69A34392021A4315
:10343000426045654968C165066270BDFF8FFFFE49
:10344000002C0140004401400048014030B5036AAF
:10345000046A6408640004628469F025AC431201C4
:1034600022430A24A3430B438261036230BD30B57B
:10347000046A036A1025AB43036283690F252D0399
:103480001203AB431A43A0239C43090121438261E9
:10349000016230BDF8B50446416E4034002915D0B4
:1034A00000688168806809014D0F0A4E400F374659
:1034B000315C083F385CC000FCF71CFE6085785D1D
:1034C000715DC000FCF716FE2085F8BD0120608507
:1034D000FAE700009E3F000810B5018D090707D5E7
:1034E00001684A680123DB039A43836B1A434A60ED
:1034F000018DC90707D001684A6801235B049A431C
:10350000C36A1A434A60018D890707D501684A6872
:1035100001231B049A43036B1A434A60018D490738
:1035200007D501684A6801239B049A43436B1A43F9
:103530004A60018DC90607D50268916801231B0303
:103540009943C36B19439160018D890607D50168C2
:103550008A6801235B039A43036C1A438A60018DD6
:10356000490612D503685A6801210905446C8A434B
:1035700022435A60426C8A4207D102685168032391
:103580005B059943836C19435160018D090607D58A
:1035900001684A680123DB04C06C9A4302434A6015
:1035A00010BD0000FEB505460026803504462E619C
:1035B000FDF7D4FF0190206800682027000700284D
:1035C00017DA25480090002239042046019B00F0BC
:1035D00081FA00280DD0EFF31080012181F31088CB
:1035E00021680A6880239A430A6080F31088AF60DC
:1035F00028E020680068400727D51748009001217F
:10360000002289052046019B00F064FA00281CD0A6
:10361000EFF31080012181F3108821680A68FF23ED
:1036200021339A430A6080F31088EFF31080012160
:1036300081F3108821688A68520852008A6080F3FA
:103640001088EF602E710320FEBDAF60EF60E6666C
:1036500026672E710020FEBDFFFFFF0110B5806AB6
:10366000002201464031CA83CA82FEF7F1FF10BD35
:10367000F8B5846A2046803081680546C6682068AF
:10368000806800270006002806DA212904D1562088
:103690000753204600F0A4F820688068400606D54D
:1036A000222E04D15E200753204600F067F82869D7
:1036B0001021084328612046FEF7CAFFF8BD70B507
:1036C00001460968806A096800228906002938DBFA
:1036D0005E210A52EFF31081012383F310880368FF
:1036E0001C68FF250135AC431C6081F31088EFF3A3
:1036F0001081012383F3108803689C6864086400C8
:103700009C6081F31088EFF31081012383F310880C
:1037100003689C684025AC439C6081F3108820239B
:103720008C210B50C16E01290BD1EFF310810123C5
:1037300083F3108803681C681025AC431C6081F378
:1037400010880267C16E012902D0FFF793F970BD9E
:103750005C21095AFEF728FF70BD10B5806A01216F
:103760000167C16E012902D0FFF785F910BD5C2108
:10377000095A4908FEF718FF10BD000010B5EFF315
:103780001081012282F3108802681368FF2421341B
:10379000A343136081F31088EFF31081012282F3B9
:1037A0001088026893680D4C2340936081F3108861
:1037B000C16E01290BD1EFF31081012282F3108831
:1037C000026813681024A343136081F31088202239
:1037D0008C210A500021C166416710BDFEFFFFEF3A
:1037E00010B5EFF31081012282F31088026813688C
:1037F000C024A343136081F31088EFF310810122EA
:1038000082F31088026893680124E405A34393605F
:1038100081F3108820218030816010BDF8B5044606
:10382000016880682369E5691843636900262B43B2
:103830001843734A0B68734D2B4003430B60206899
:10384000416803231B039943E368194341602168DE
:10385000A069914201D0236A18438B686A4D2B40BE
:1038600003438B602068C16A636A0909090119432F
:10387000C1626649236866488B420AD14069800765
:10388000800F09D001282CD0022828D0032816D177
:1038900013E060498B4201D1002111E093420ED127
:1038A00041690320800201400AD001208002091AE8
:1038B00017D0091A13D0814201D1082100E010214C
:1038C0000120554D554FC00393423DD100290AD0E8
:1038D000022911D0042909D0082934D10BE0022192
:1038E000EEE70421ECE7FEF74FF801E0FEF760F8A1
:1038F000050001D179E00546606A4000395A284642
:103900000091FCF7F7FB676879007918814267D866
:103910003903814264D3002328461946009AFCF7F4
:1039200013FC020E09020302780811431818002242
:1039300051413A460023FCF707FC03210902384AAB
:10394000411A91424FD94BE0E269824227D10029C6
:1039500006D0022907D0042907D0082940D108E061
:10396000FEF712F803E0284603E0FEF721F80028EE
:103970003BD0616A4900795AFCF7BCFB61684000A2
:103980004A088018FCF7B6FB0146264A10399142D6
:1039900026D8511C01400007400F084323E00029AE
:1039A00006D0022907D0042907D0082918D108E039
:1039B000FDF7EAFF03E0284603E0FDF7F9FF0028E2
:1039C00013D0616A4900795AFCF794FB61684A0890
:1039D0008018FCF78FFB0146124A1039914201D939
:1039E000012602E080B22168C860204601214030F3
:1039F0004185018500206067A0673046F8BD000062
:103A000000800040F369FFCFFFF4FF110038014050
:103A100040100240004400400024F4007E3F0008B3
:103A2000FFFC0F00EFFF000070B5044681654030D9
:103A3000828300202546803528612221E96029689B
:103A4000002919D0204BCB622B68204919632B68C1
:103A50001F495963296813468863A66D2168324659
:103A600024312868FDF774FC002805D01020286157
:103A70002020E860012070BD206900280CD0EFF301
:103A80001080012181F3108821680A68FF23013327
:103A90001A430A6080F31088EFF31080012181F34C
:103AA0001088226893680B43936080F31088EFF3CB
:103AB000108081F3108821688A6840231A438A6045
:103AC00080F31088002070BDBF3600085B37000807
:103AD00071360008FFB581B005460E4604468035B4
:103AE0000A9F32E0781C30D0FDF738FD0499401A67
:103AF000B84218D8002F16D020680168490724D58D
:103B0000802E22D0402E20D0C169C94309070CD491
:103B1000082606622046FFF731FE2E61002028713C
:103B2000012005B0F0BD0320FBE7C069C0430005DC
:103B30000BD401202168C00208622046FFF71EFE58
:103B40002020286100202871EDE72068C1693046F7
:103B5000884305D0002103988142C3D00020E0E7CC
:103B60000121F8E710B50248FEF774FD10BD000012
:103B7000E00100208307FF22DB0E9A408907090E2F
:103B80009940002808DB830809489B001B18186827
:103B900090430843186070470007000F08388308F7
:103BA00004489B001B18D86990430843D8617047AC
:103BB00000E400E000ED00E002E008C8121F08C1C8
:103BC000002AFAD170477047002001E001C1121F9E
:103BD000002AFBD17047C1134840401A80B2704799
:103BE00010B51C46029B8A4201D8204610BD88426F
:103BF00001D2084602E0904200D91046401A1B1B31
:103C00005843511AFCF78CFA001900B210BDF8B5F0
:103C10000546079E06981C468A4213D98C4211D944
:103C200094420FD28319DF0FFB185B101BB2A54221
:103C300003D200930346224601E02146009628461F
:103C4000FFF7CEFFF8BD00000EB5FDF795FCFFF7BE
:103C500003FAFEF7B5FFFEF797FFFFF78BF8FEF7C5
:103C6000FDFFFFF741F8FEF7BFFFFEF72DFFAD4860
:103C7000FCF792FEAC48FEF77BF90021AA48FEF75C
:103C8000D9FB0421A848FEF7D5FBA848FEF770F938
:103C90000021A648FEF7CEFB0421A448FEF7CAFB8C
:103CA0007D20C000FDF79AFBFFF764F8FCF7B4FD38
:103CB000FCF72CFDFDF752FC9E4D9D4C2E46203608
:103CC000A060FFF795F9FDF749FCF17A012902D0D0
:103CD00000F040F9ADE0317B022917D0012964D012
:103CE000964A95495160964A51606169411A0A297C
:103CF0007CD3944B0421595E01229202914276DAE0
:103D0000571A462F00DD46277918A1E08B498E48C7
:103D100048608B4948600A21E88C71564018A18898
:103D2000411809B20291E188401800B20190298C33
:103D3000192040010A18401A12B207B20C20009252
:103D4000A070FDF70BFCE168401A29D420787F4A67
:103D500084464000105E029B4743FA139B1A794A3F
:103D60000E31D380009B4343D813019B181AD08493
:103D70000120E160205600280ADD6046401CC0B2E8
:103D8000207008280CD3082020700020C04306E0D3
:103D90006046401E207003D2002020700120607019
:103DA000FFF726F9FFF71CF88BE7644A6849516072
:103DB000634A51600A22E98CB2562B8C8A18A1887A
:103DC000E7885118C91ADB19D21813B2226909B24F
:103DD000821A052A29D35B4F0422BA5E8A4207DA87
:103DE000891A462900DD4621891808E046E028E0C6
:103DF0008A4205DD511A462900DD4621511A0AB2D0
:103E0000FA802421795E994205DA5A1A462A00DDA1
:103E10004622511806E0994205DDCA1A462A00DDFD
:103E20004622891A09B2F9842061FFF7E1F8FEF70A
:103E3000D7FF0020207001206070FDF78FFBE0604D
:103E40003FE7914205DD8F1A462F00DD4627C91B4B
:103E500009B2D9802421595E914205DA521A462AC4
:103E600000DD4622511806E0914205DD8A1A462AF5
:103E700000DD4622891A09B2D984606131488188FF
:103E800001208002401A00B2FFF7A5FEC82801D920
:103E9000012700E000272B48818801208002401A7A
:103EA00000B2FFF798FEC82801D9012000E00020E9
:103EB0000742BAD0234F0120B98C8002401A00B2C9
:103EC000FFF789FEFCF76DFA0090B98801208002A7
:103ED000401A00B2FFF77FFEFCF763FA1649FCF7C1
:103EE000CEF90099FCF708FA14494860B988012016
:103EF0008002401A00B2FFF76EFEFCF752FA009003
:103F0000B98C01208002401A00B2FFF764FEFCF772
:103F100048FA0949FCF7B3F90099FCF7EDF90849AB
:103F2000486082E73C000020480100209401002006
:103F300000000020D40300200000404120030020A6
:103F400068030020D00200200000F0416C3F000810
:103F5000000020410020012189074863886302494D
:103F600048638863704700000004004040782D6279
:103F70000040C72B000039D400C0D39DC08701008A
:103F800002000400060008000A000C0010002000D7
:103F90004000800000010101010307010000080446
:103FA0000204080101010000000000000000000000
:103FB0000000000000000000000000000000000001
:103FC00000000000000000000100000002000000EE
:103FD00003000000040000000600000007000000CD
:103FE00008000000090000000000000000000000C0
:103FF00000000000000000000100000002000000BE
:1040000003000000040000000000A04100000000C8
:10401000000000000000A0410000000000000000BF
:1040200040400008000000203C000000B83B0008B1
:104030007C4000083C000020D4070000C83B00087A
:104040000D01000066086608000000000000000086
:10405000000000000000000001000000040000005B
:10406000000000000024F400000000000000000038
:0C40700000000000000000000000000044
:04000005080000C12E
:00000001FF
